:100000000C94D4010C9401020C9401020C94010292
:100010000C9401020C9401020C9401020C94010254
:100020000C9401020C9401020C9401020C94010244
:100030000C9401020C9401020C9401020C94010234
:100040000C9401020C9401020C9401020C94010224
:100050000C9401020C9401020C9401020C94B7114F
:100060000C9401020C9471140C94B9150C940102B7
:100070000C9401020C9401020C9401020C940102F4
:100080000C9401020C9401020C9401020C940102E4
:100090000C94B1140C94F8150C9401020C94010208
:1000A0000C9401020C9401020C9401020C940102C4
:1000B0000C9401020C9401020C9401020C940102B4
:1000C0000C9401020C9401020C9401020C94F114A2
:1000D0000C9437160C9401020C9431150C9476167E
:1000E0000C94010255035E036703700379038203D6
:1000F0008B0394039D03A603AF03B803C103CA0394
:10010000D303DC03E303EC03F503FE0305040E0451
:10011000170420042904320439044004490450041B
:1001200057046004690472047B0484048D049404FD
:100130009D04A604AF04B804C104CA04D304DC04BB
:10014000E504EE04F7040005090512051B05240566
:100150002D0536053F0548055105580561056A0519
:1001600073057C0583058C0595059E05A705B005DF
:10017000B905C205CB05D405DD05E605EF05F80593
:1001800001060A0613061C0625062E06370640063B
:10019000490652065B0664066D0676067F068806EB
:1001A00091069A06A306AC06B506BE06C706D0069B
:1001B000D906E006E906F006F706FE0605070E0773
:1001C0001707200727073007390742074907520753
:1001D0005B0762076B077207790780078907920739
:1001E0009B0705A84CCDB2D44EB93836A9020C50A5
:1001F000B9918688083CA6AAAA2ABE000000803FC2
:1002000007634236B79BD8A71A39685618AEBAABFF
:10021000558C1D3CB7CC5763BD6DEDFD753EF61793
:100220007231BF000000803F08000000BE922449E8
:10023000123EABAAAA2ABECDCCCC4C3E0000008018
:10024000BEABAAAAAA3E00000000BF000000803F8B
:100250000000000000084178D3BB4387D1133D194B
:100260000E3CC3BD4282AD2B3E68EC8276BED98F78
:10027000E1A93E4C80EFFFBE01C4FF7F3F000000BC
:10028000000000002100240027002A002D0030007B
:10029000330001010000040107010A0100002200EF
:1002A000250028002B002E00310034000201000040
:1002B000050108010B010000200023002600290091
:1002C0002C002F003200000100000301060109018B
:1002D00005050505070508080808020202020A0AC2
:1002E00008080404040401010101010101010303E0
:1002F000030303030303040707070C0C0C0C0C0C8B
:100300000C0C0202020206060606060606060B0B87
:100310000B0B0B0B0B0B01021020200808102040C8
:1003200010204080020102010804020101020408B9
:100330001020408080402010080402018004020147
:100340008040201008040201080402010102040890
:100350001020408001020408102040800000090A9B
:1003600002080B0C0D07060304010000000000004A
:10037000000000000000000000000000000000007D
:10038000000000000000000011100F00000000003D
:10039000000000000000000000000000000000005D
:1003A00000000208E617FB0711241FBECFEFD1E2C1
:1003B000DEBFCDBF00E00CBF16E0A0E0B2E0E8E693
:1003C000FEE300E00BBF02C007900D92A83BB1070F
:1003D000D9F71BBE1DE0A8EBB6E001C01D92A33407
:1003E000B107E1F713E0C6EAD3E004C02297FE01AB
:1003F0000E94EC1EC23AD107C9F70E941C190C9446
:10040000271F0C9400000F931F93CF93DF93689FD7
:100410008001699F100D789F100D1124C8010E9462
:100420008210EC01009729F060E070E0A8010E94C2
:100430008002CE01DF91CF911F910F910895A0E02E
:10044000B0E0E5E2F2E00C94F81EEC01A880B9807F
:10045000CA80DB80A114B104C104D10441F484E258
:10046000A82E89EDB82E8BE5C82E87E0D82EC601C0
:10047000B5012DE133EF41E050E00E94CF1E27EAA5
:1004800031E440E050E00E94671E7B018C01C60110
:10049000B5012DE133EF41E050E00E94CF1ECA01CB
:1004A000B9012CEE34EF4FEF5FEF0E94671E6E0D27
:1004B0007F1D801F911F97FF04C0615070408040D6
:1004C0009048688379838A839B839B01AC015F7723
:1004D000B901CA01CDB7DEB7EAE00C94141F0E943F
:1004E0001F02089583E392E00E941F020895609323
:1004F000330270933402809335029093360208954C
:10050000DC0101C06D9341505040E0F70895EF9237
:10051000FF920F931F93CF93DF93EC01FC0193E0C5
:10052000EE0FFF1F9A95E1F7EC1BFD0BE553F94F1A
:100530008481823029F08330A9F0813099F409C098
:100540006091760A7091770A8091780A9091790A81
:1005500011C060915E0A70915F0A8091600A90916B
:10056000610A08C060916A0A70916B0A80916C0AF6
:1005700090916D0A0E94621B862F6FEF70E0681BDE
:100580007109882777FD8095982F0E94901B7B0129
:100590008C01FE0183E0EE0FFF1F8A95E1F7EC1B53
:1005A000FD0BE553F94F62817381882777FD8095B4
:1005B000982F0E94901B23E333E343EA5EEB0E94F3
:1005C000861C9B01AC01C801B7010E948A1A0E94D7
:1005D0005D1BCB012FEF6C3972071CF46FEF70E0DD
:1005E00018C0653671051CF060E070E012C064E66A
:1005F00070E0681B790B882777FD8095982F0E9403
:10060000901B23E333E343EA5FE30E94861C0E94CE
:100610005D1B862FDF91CF911F910F91FF90EF907F
:1006200008952F923F924F925F926F927F928F9296
:100630009F92AF92BF92CF92DF92EF92FF920F9371
:100640001F93CF93DF93ADECB6E060E070E041E044
:1006500052E0FFEB4F2E512CE6EC2E2E312C0BEE00
:1006600010E034EE832E912C21EA622E712CCAEA1E
:10067000D0E09BEAE92EF12C84E9C82ED12CF4E8D5
:10068000AF2EB12C13966C93139714964C9314972A
:10069000FB016F37710508F057C4EE58FF4FEE0F9E
:1006A000FF1F0590F491E02D199488E190E090935C
:1006B000CE068093CD061092CF0649C48FE490E019
:1006C0009093D5068093D4064093D60640C48BE71A
:1006D00090E09093DC068093DB061092DD0637C431
:1006E0008CE890E09093E3068093E2064093E40662
:1006F0002EC48FE590E09093EA068093E90610926D
:10070000EB0625C485E490E09093F1068093F00613
:100710001092F2061CC48FE190E09093F80680934B
:10072000F7064093F90613C48CE390E09093FF061C
:100730008093FE06409300070AC482E290E0909303
:100740000607809305071092070701C484E190E033
:1007500090930D0780930C0740930E07F8C383E531
:1007600090E0909314078093130740931507EFC30D
:1007700087E390E090931B0780931A0710921C0761
:10078000E6C389E590E09093220780932107409388
:100790002307DDC38CE890E0909329078093280716
:1007A00040932A07D4C38BE790E09093300780935F
:1007B0002F0710923107CBC3B0923707A0923607AC
:1007C00040933807C4C386EA90E090933E07809335
:1007D0003D0710923F07BBC383EB90E09093450722
:1007E0008093440740934607B2C38CEC90E090930B
:1007F0004C0780934B0740934D07A9C310935307B1
:100800000093520710925407A2C382E191E09093A3
:100810005A078093590740935B0799C38BEF90E089
:1008200090936107809360074093620790C388E1CB
:1008300091E090936807809367071092690787C3D8
:1008400082E291E090936F0780936E074093700768
:100850007EC387E091E090937607809375071092AE
:10086000770775C390927D0780927C0740937E073F
:100870006EC310938407009383071092850767C3A4
:1008800088EC90E090938B0780938A0710928C07F6
:100890005EC330929207209291074093930757C30B
:1008A000F0929907E092980710929A0750C381EE50
:1008B00090E09093A00780939F074093A10747C3C0
:1008C00083E191E09093A7078093A6074093A80740
:1008D0003EC387E390E09093AE078093AD071092FC
:1008E000AF0735C38AE590E09093B5078093B407CE
:1008F0004093B6072CC38EE690E09093BC0780939C
:10090000BB074093BD0723C38DE990E09093C307D5
:100910008093C2074093C4071AC3D093CA07C093F9
:10092000C9071092CB0713C383E890E09093D107D7
:100930008093D0071092D2070AC38DE590E0909380
:10094000D8078093D7071092D90701C384E390E0BA
:100950009093DF078093DE074093E007F8C28AE3B5
:1009600090E09093E6078093E5074093E707EFC296
:100970008FE690E09093ED078093EC071092EE07DE
:10098000E6C283E390E09093F4078093F30710921C
:10099000F507DDC28EE490E09093FB078093FA07A1
:1009A0004093FC07D4C286E790E0909302088093BE
:1009B000010840930308CBC28AE990E090930908AC
:1009C0008093080810920A08C2C28CE890E09093C5
:1009D000100880930F0840931108B9C287EA90E08D
:1009E000909317088093160840931808B0C287E3C5
:1009F00090E090931E0880931D0840931F08A7C2A3
:100A000088E590E090932508809324084093260879
:100A10009EC282E690E090932C0880932B0810925F
:100A20002D0895C281E890E09093330880933208B6
:100A3000409334088CC280EA90E090933A08809307
:100A4000390810923B0883C287EA90E090934108EE
:100A500080934008409342087AC289E790E09093DF
:100A60004808809347081092490871C289E490E0D1
:100A700090934F0880934E081092500868C281E30B
:100A800090E09093560880935508409357085FC2B2
:100A900088E690E090935D0880935C0840935E0840
:100AA00056C2D0926408C0926308109265084FC283
:100AB0008DE790E090936B0880936A0840936C08F0
:100AC00046C28EE490E09093720880937108409340
:100AD00073083DC285E390E090937908809378088D
:100AE00010927A0834C28FE790E090938008809348
:100AF0007F08109281082BC2D0938708C093860884
:100B00004093880824C287E190E090938E088093F8
:100B10008D0810928F082EC287E190E0909395087F
:100B2000809394085093960825C28BE290E09093AE
:100B30009C0880939B0810929D081CC287E190E05E
:100B40009093A3088093A2085093A40813C287E14E
:100B500090E09093AA088093A9085093AB080AC22A
:100B600088E290E09093B1088093B0085093B20867
:100B700001C28CE190E09093B8088093B70850933D
:100B8000B908F8C18DE190E09093BF088093BE084A
:100B90001092C008EFC183E290E09093C608809362
:100BA000C5081092C708E6C182E390E09093CD0893
:100BB0008093CC085093CE08DDC188E390E09093F9
:100BC000D4088093D3081092D508D4C181E390E073
:100BD0009093DB088093DA085093DC08CBC184E360
:100BE00090E09093E2088093E1081092E308C2C17C
:100BF00083E390E09093E9088093E8085093EA0833
:100C0000B9C188E390E09093F0088093EF08509387
:100C1000F108B0C182E390E09093F7088093F60862
:100C20001092F808A7C185E390E09093FE088093A6
:100C3000FD085093FF089EC18BE490E09093050956
:100C4000809304091092060995C182E490E0909384
:100C50000C0980930B0950930D098CC182E490E03C
:100C600090931309809312091092140983C182E4AE
:100C700090E090931A098093190950931B097AC147
:100C80008DE490E0909321098093200950932209EC
:100C900071C189E590E090932809809327095093CA
:100CA000290968C184E690E090932F0980932E096A
:100CB000109230095FC181E790E0909336098093EC
:100CC00035095093370956C187E690E090933D0966
:100CD00080933C0950933E094DC18BE590E0909381
:100CE0004409809343091092450944C189E690E084
:100CF00090934B0980934A0950934C093BC183E67A
:100D000090E090935209809351095093530932C156
:100D100089E690E0909359098093580910925A09F6
:100D200029C189E690E09093600980935F09509310
:100D3000610920C184E690E0909367098093660979
:100D40001092680917C183E890E090936E09809330
:100D50006D0950936F090EC187E890E09093750973
:100D6000809374095093760905C185E990E09093CA
:100D70007C0980937B0910927D09FCC085E890E096
:100D8000909383098093820950938409F3C082E889
:100D900090E090938A098093890910928B09EAC0A8
:100DA00083E890E0909391098093900910929209C2
:100DB000E1C0B0929809A092970910929909DAC0FF
:100DC00082E990E090939F0980939E095093A00937
:100DD000D1C0D092A609C092A5091092A709CAC095
:100DE0007092AD096092AC095093AE09C3C0F09205
:100DF000B409E092B3091092B509BCC0D093BB0905
:100E0000C093BA095093BC09B5C082EA90E09093B0
:100E1000C2098093C1091092C309ACC086E990E071
:100E20009093C9098093C8095093CA09A3C08CEA5A
:100E300090E09093D0098093CF095093D1099AC044
:100E40007092D7096092D6091092D80993C084EDA8
:100E500090E09093DE098093DD091092DF098AC04B
:100E600087EE90E09093E5098093E4095093E609BA
:100E700081C080EF90E09093EC098093EB09109291
:100E8000ED0978C09092F3098092F2091092F4096A
:100E900071C083EE90E09093FA098093F909509322
:100EA000FB0968C08DEE90E09093010A8093000AE0
:100EB0001092020A5FC01093080A0093070A509329
:100EC000090A58C083ED90E090930F0A80930E0AB0
:100ED0001092100A4FC05092160A4092150A509371
:100EE000170A48C030921D0A20921C0A50931E0A0D
:100EF00041C05092240A4092230A1092250A3AC017
:100F000084EC90E090932B0A80932A0A50932C0A49
:100F100031C080EC90E09093320A8093310A509374
:100F2000330A28C080ED90E09093390A8093380A04
:100F300050933A0A1FC08EEB90E09093400A809342
:100F40003F0A1092410A16C0603471059CF4603269
:100F50007105DCF08D919C911197845D9E4F1196E7
:100F60009C938E938C5291406033710574F08E5334
:100F70009E4F08C02D913C911197C901880F991F70
:100F8000820F931F11969C938E936F5F7F4F1796DE
:100F90006138710509F076CBDF91CF911F910F91E8
:100FA000FF90EF90DF90CF90BF90AF909F908F9089
:100FB0007F906F905F904F903F902F9008950F9388
:100FC0008130910569F46F5F7F4F99F488EB96E06B
:100FD00061E870E042E023E000E00E941A1009C0DE
:100FE000892B39F46F5F7F4F21F488EB96E00E94E4
:100FF000A30F0F91089580E090E06FEF7FEF0E94C4
:10100000DF07089581E090E06FEF7FEF0E94DF0738
:1010100008956F927F928F929F92AF92BF92CF92DC
:10102000DF92EF92FF920F931F93CF93DF934C01C8
:101030008130910529F480E390E0C6E7DAE004C04E
:1010400081E390E0CEE5DAE061E020E432E44FE0D5
:1010500050E00E94D4133B018E819F812C813D8101
:10106000821B930B860D971D9F838E8397FF03C072
:10107000909581959F4F8955924014F01F821E8252
:101080006E817F81882777FD8095982F0E94901B25
:1010900020E030E048EC51E40E94F51A7B018C011D
:1010A0000E94FF115B016C01C801B70120E030E034
:1010B00040E050E00E94821C18165CF4C801B701A1
:1010C00020E030E040E85FE30E94821C18165CF0EC
:1010D00013C0C801B70120E030E040E85FEB0E9498
:1010E000EE1A88234CF41092560A1092570A109266
:1010F000580A1092590A22C0892801F58091560A8F
:101100009091570AA091580AB091590A20915A0A11
:1011100030915B0A40915C0A50915D0A821B930BEF
:10112000A40BB50B8A0D9B1DAC1DBD1D8093560AEB
:101130009093570AA093580AB093590AA0925A0A5A
:10114000B0925B0AC0925C0AD0925D0A2091560A66
:101150003091570A4091580A5091590A80919B0644
:1011600090919C06A0919D06B0919E062817390784
:101170004A075B0788F5C801B70120E030E048E482
:1011800052EC0E94F51A288539854A855B850E94B4
:101190008A1A7B018C0120E030E040E050EC0E9494
:1011A000EE1A88232CF480E090E0A0E0B0EC29C097
:1011B000C801B70120E030E040E050E40E94821C0A
:1011C00018162CF480E090E0A0E0B0E41AC0E886A5
:1011D000F9860A871B8719C0688179818A819B817A
:1011E00020E030E04EEF52E40E94821C88232CF075
:1011F0008DEC9CECACE4BEEB04C08DEC9CECACE460
:10120000BEE388879987AA87BB87688179818A81AD
:101210009B81288539854A855B850E948A1A688367
:1012200079838A839B8320E030E04FE753E40E9478
:10123000821C181644F480E090E0AFE7B3E48883A2
:101240009983AA83BB83688179818A819B8120E00D
:1012500030E040E050E00E94EE1A882344F480E041
:1012600090E0A0E0B0E088839983AA83BB838E815D
:101270009F8168E070E00E949A1E7F836E837D826A
:101280006C82DF91CF911F910F91FF90EF90DF90D3
:10129000CF90BF90AF909F908F907F906F90089568
:1012A000AF92BF92CF92DF92EF92FF920F931F9374
:1012B0008091950690919606A0919706B091980618
:1012C0008F5F9F4FAF4FBF4F51F40E94FF1160934C
:1012D00095067093960680939706909398060E94C1
:1012E000FF112091950630919606409197065091F6
:1012F0009806621B730B840B950B2AEF30E040E0DD
:1013000050E00E94AD1ECA01B90120913702309110
:101310003802442737FD4095542F0E94AD1EDC0152
:10132000CB01880F991FFC01E959FB4FE080F18048
:10133000A0905E0AB0905F0AC090600AD090610AE7
:10134000875C9D4FFC0160817181882777FD8095C6
:10135000982F0E94901BA60195010E94891A20E0F7
:1013600030E040EA50E40E94F51A9B01AC01C6014E
:10137000B5010E948A1A60935E0A70935F0A809397
:10138000600A9093610AA090760AB090770AC090A4
:10139000780AD090790A0027F7FC0095102FC80131
:1013A000B7010E94901BA60195010E94891A20E0B6
:1013B00030E040EA50E40E94F51A9B01AC01C601FE
:1013C000B5010E948A1A6093760A7093770A809317
:1013D000780A9093790A1F910F91FF90EF90DF9018
:1013E000CF90BF90AF9008950F93CF93DF93C0E05D
:1013F000D0E088EB96E0BE0140E020E000E00E94F3
:101400000C0F2196C138D105A1F7DF91CF910F9133
:1014100008950F93CF93DF930E94F409C0E0D0E0CA
:1014200087EB9CE00E946D178F5F9F4F91F00E94A9
:10143000F40988EB96E0BE014FEF2FEF0FEF0E940B
:101440000C0F87EB9CE0BE014AE050E00E94351A89
:10145000219688EB96E00E94300F6FE070E080E00C
:1014600090E00E943312C138D105D4F287EB9CE0A2
:1014700060E072E00E94541A1092550A1092540AC9
:10148000DF91CF910F9108950F931F9380349105B1
:101490004CF40091860A1091870A2091880A3091B5
:1014A000890A08C000918A0A10918B0A20918C0A3F
:1014B00030918D0A65E070E00E949A1E823091059D
:1014C000C1F0833091052CF4009749F00197D1F5D4
:1014D00009C083309105A1F00497A1F518C0C90196
:1014E000B8011DC0C901B8012DEC3CEC4CE45EE331
:1014F00014C0C901B8012DEC3CEC4CEC5EE30DC00E
:10150000C901B8012AE939E949E15FE306C0C90127
:10151000B8012DEC3CEC4CE45FE30E948A1A2BED01
:101520003FE049EC50E40E94861C0E94351D20E0FB
:1015300030E04EEF52E40E94861C0E945D1B862F15
:10154000815800C01F910F910895CF92DF92EF92C2
:10155000FF920F931F938C016091820A7091830A0E
:101560008091840A9091850A2BED3FE049EC50E48C
:101570000E94861C6B017C01F801B3E0EE0FFF1F97
:10158000BA95E1F7E01BF10BE553F94F62817381E6
:10159000882777FD8095982F0E94901B20E030E0EF
:1015A00048EC54E40E94F51A2BED3FE049EC50E47E
:1015B0000E94861C9B01AC01C701B6010E94891ADA
:1015C0000E94F21A20E030E040E85FE30E948A1AAD
:1015D00020E030E04EEF52E40E94861C0E94621B25
:1015E000DC01CB011F910F91FF90EF90DF90CF9026
:1015F00008952F923F924F925F926F927F928F92B7
:101600009F92AF92BF92CF92DF92EF92FF920F9391
:101610001F936C016091520A7091530A882777FDDD
:101620008095982F0E94901B7B018C0160919F06F2
:101630007091A006882777FD8095982F0E94901BB7
:101640009B01AC01C801B7010E94F51A1B012C01D6
:10165000C6010E94440AE82EC6010E94A50AA82ECF
:10166000FF2400E010E0C801B7010E948E1BA20118
:1016700091010E94861C3B014C01BB24CC24DD243B
:10168000C601B5010E948E1B7B018C0160E070E0F9
:1016900080E89FE3A20191010E94891A9B01AC019D
:1016A000C801B7010E94861C9B01AC01C401B301B3
:1016B0000E948A1A0E94621BDC01CB011F910F91CC
:1016C000FF90EF90DF90CF90BF90AF909F908F9062
:1016D0007F906F905F904F903F902F900895FF9272
:1016E0000F931F930E940D12FF2425E630E040E087
:1016F00050E00E94AD1E069FC001079F900D169FEF
:10170000900D11248157924614F0FF24F3948F2DED
:101710001F910F91FF9008952F923F924F925F92E9
:101720006F927F928F929F92AF92BF92CF92DF92F1
:10173000EF92FF920F931F93CF93DF9364E670E0D5
:1017400080E090E00E94671A5B0161E870E0209100
:10175000990630919A06621B730B882777FD809556
:10176000982F0E94901B20E030E041E053E40E945B
:10177000F51A7B018C01A80197010E948A1A9B012E
:10178000AC016DE478EF8DE290E40E94E91C9B01CE
:10179000AC01CA01B90120E030E040EA50E40E9407
:1017A000F51A20E030E040E85FE30E948A1A1B014E
:1017B0002C0160E070E080E89FE3A80197010E949F
:1017C000891A9B01AC010E948A1A9B01AC016DE44D
:1017D00078EF8DE290E40E94E91C9B01AC01CA0104
:1017E000B90120E030E040EA50E40E94F51A20E020
:1017F00030E040E85FE30E948A1A3B014C018FEC25
:10180000E82E86E0F82EC0E0D0E08091560A909154
:10181000570AA091580AB091590A81549C49A04096
:10182000B04008F03FC0F7018281C090520AD090CA
:10183000530A8823E9F0CE01B5019101A201860186
:101840000E946F0B882371F1F70112828091990633
:1018500090919A06019790939A068093990688EB47
:1018600096E0BE0140E020E000E00E940C0F1AC0AC
:1018700000919F061091A0060C191D09CE01B5011B
:101880009301A4010E946F0B882361F021E0F7010E
:1018900022838091990690919A06019690939A06D8
:1018A00080939906F70190818281882331F19130EC
:1018B00071F09230B1F0992301F5CE010E94F90A3E
:1018C000082F88EB96E0BE01402F202F14C0CE01D8
:1018D0000E948702082F88EB96E0BE01402F2AE085
:1018E00009C0CE010E948702082F88EB96E0BE0156
:1018F0004AE0202F00950E940C0F219687E090E08F
:10190000E80EF91EC138D10509F07FCF6091820A37
:101910007091830A8091840A9091850A29E334EBBF
:1019200048EC5CE30E948A1A7B018C016093820A76
:101930007093830A8093840A9093850A20E030E0B4
:1019400040E85FE30E94821C88239CF0C801B70135
:1019500020E030E040E85FE30E94891A6093820A49
:101960007093830A8093840A9093850A8EE161E0E4
:101970000CC0C801B7012AE939E949E15EE30E94D8
:10198000821C882324F08EE160E00E94A113E09085
:101990005E0AF0905F0A0091600A1091610AC80126
:1019A000B70120E030E040E450E40E94861C20E0D3
:1019B00030E44CE156E40E94F51A5B016C01209181
:1019C000860A3091870A4091880A5091890A0E94BC
:1019D0008A1A3B014C016093860A7093870A8093B0
:1019E000880A9093890AC801B70120E030E04EEFE1
:1019F00052E40E94891A7B018C0120E030E040E033
:101A000050E00E94821C18165CF4C801B70120E067
:101A100030E04CED52E40E94821C18165CF01EC0AF
:101A2000C801B70120E030E04CED52EC0E94EE1A04
:101A30008823A4F4C601B501A60195010E948A1A63
:101A40009B01AC01C401B3010E948A1A6093860A0B
:101A50007093870A8093880A9093890AE090860A97
:101A6000F090870A0091880A1091890AC801B7018D
:101A700020E030E040E85FE30E94821C882384F08D
:101A8000C801B70120E030E040E85FE30E94891A16
:101A90006093860A7093870A8093880A9093890AD4
:101AA000E090760AF090770A0091780A1091790A0E
:101AB000C801B70120E030E040E450E40E94861CF9
:101AC00020E030E44CE156E40E94F51A5B016C0121
:101AD00020918A0A30918B0A40918C0A50918D0A8C
:101AE0000E948A1A3B014C0160938A0A70938B0A08
:101AF00080938C0A90938D0AC801B70120E030E0F2
:101B00004EEF52E40E94891A7B018C0120E030E004
:101B100040E050E00E94821C18165CF4C801B70136
:101B200020E030E04CED52E40E94821C18165CF07C
:101B30001EC0C801B70120E030E04CED52EC0E941D
:101B4000EE1A8823A4F4C601B501A60195010E94EE
:101B50008A1A9B01AC01C401B3010E948A1A6093E6
:101B60008A0A70938B0A80938C0A90938D0AE09076
:101B70008A0AF0908B0A00918C0A10918D0AC80194
:101B8000B70120E030E040E85FE30E94821C882338
:101B900084F0C801B70120E030E040E85FE30E9434
:101BA000891A60938A0A70938B0A80938C0A9093A7
:101BB0008D0ADF91CF911F910F91FF90EF90DF90F1
:101BC000CF90BF90AF909F908F907F906F905F90DD
:101BD0004F903F902F900895AF92BF92CF92DF9297
:101BE000EF92FF920F931F9360915E0A70915F0ACC
:101BF0008091600A9091610A20E030E04EEF52E45B
:101C00000E94891A5B016C0120E030E040E050E066
:101C10000E94821C181624F0D7FAD094D7F8D094DA
:101C20006091760A7091770A8091780A9091790A8A
:101C300020E030E04EEF52E40E94891A7B018C01D3
:101C400020E030E040E050E00E94821C181624F0B2
:101C500017FB109517F91095C601B501A80197015A
:101C60000E948A1A0E945D1B8B019C017093530A8B
:101C70006093520A80919F069091A00662E070E006
:101C80000E949A1E061717073CF48FE161E00E943C
:101C9000A11380E261E006C08FE160E00E94A11321
:101CA00080E260E00E94A11380E090E00E940908B9
:101CB00081E090E00E9409088091560A9091570AAD
:101CC000A091580AB091590A81549C49A040B04053
:101CD00010F00E9450098091540A9091550A813069
:101CE000910541F08230910551F0892B79F40E94E1
:101CF0008C0B14C087EB9CE061E172E004C087EBC1
:101D00009CE068E172E00E94541A08C087EB9CE0F6
:101D100062E272E00E94541A0E94090A88EB96E07F
:101D20000E94300F1F910F91FF90EF90DF90CF90A6
:101D3000BF90AF9008950F931F9307EB1CE0C8016D
:101D400040E855E260E070E00E94B5161092550A36
:101D50001092540A0E941103C8016DE272E00E94C1
:101D6000541A8EE161E00E94EE128FE161E00E9460
:101D7000EE1280E261E00E94EE1285E361E00E94D3
:101D8000EE1208EB16E0C8010E943110C8010E9453
:101D9000300F80E090E0AEEFB2E480935E0A909363
:101DA0005F0AA093600AB093610A1092630A1092CE
:101DB000620A1092650A1092640A20E030E040E066
:101DC00050E02093660A3093670A4093680A509364
:101DD000690A8093760A9093770AA093780AB09361
:101DE000790A10927B0A10927A0A10927D0A109258
:101DF0007C0A20937E0A30937F0A4093800A509396
:101E0000810A80936A0A90936B0AA0936C0AB0933C
:101E10006D0A1F910F9108950F93DC018D919C9194
:101E2000119768177907D0F4CB01880F991F860F97
:101E3000971F1696ED91FC911797E80FF91F1896CA
:101E40008C91BF016F5F7F4F882319F440832183FA
:101E500002C020834183FB01319600830F910895D6
:101E60001F93CF93DF93DC018D919C911197EC012F
:101E7000CC0FDD1FC80FD91F51968C915197882325
:101E800019F440E050E051C020E030E00DC016965B
:101E9000ED91FC911797E20FF31F80818EBD0DB479
:101EA00007FEFDCF2F5F3F4F2C173D0780F341C04A
:101EB00010E860E070E0812F90E01696ED91FC91C3
:101EC0001797E40FF51F208130E0822393231F969C
:101ED000ED91FC9150971C962C911C97892B21F029
:101EE0008081822B808304C08081209528232083D9
:101EF0001D96ED91FC911E9780811B969C911B97DE
:101F0000892B80831D96ED91FC911E9790811B96E5
:101F10008C911B9780958923808316956F5F7F4FE7
:101F20006830710541F64F5F5F4F4C175D0708F44D
:101F3000BFCF61E070E080E090E00E943312DF915B
:101F4000CF911F910895FC0186819781009711F030
:101F50000E941F1108950F931F93CF93DF938C015D
:101F6000EB01FC01128ACB0163E070E00E940302E6
:101F7000F80197838683009711F4C0E0D0E0F80160
:101F8000D183C083DF91CF911F910F9108950E945B
:101F90006B1081E00E944C1080E00E94551081E09F
:101FA0000E945A1008950F931F93CF93DF93EC0173
:101FB000062F142F8A89813069F48989813011F4C0
:101FC0000E944810802F61E00E94EE12812F61E094
:101FD0000E94EE12198A0A871987212F30E0F90131
:101FE000E053FD4FE491F0E0EE0FFF1FE456FD4F8C
:101FF000859194919E878D872A5E3C4FF90144918B
:102000004B87202F30E0F901E053FD4FE491F0E0E1
:10201000EE0FFF1FE456FD4F85919491988B8F87AB
:102020002A5E3C4FF90164916C87DF91CF911F913B
:102030000F910895DF92EF92FF920F931F937C010F
:10204000142FD22EFC0100870E94AB0FC701612F15
:102050004D2D0E94D30F1F910F91FF90EF90DF90B5
:102060000895CF93DF93EC018989813021F4CE016B
:102070000E94C70F08C08A8561E00E94EE12898520
:1020800061E00E94EE1281E08A8BDF91CF9108958A
:102090008CB58F7B8CBD0895882319F48CB5806234
:1020A00002C08CB58F7D8CBD08959CB5937F982B15
:1020B0009CBD08952CB5382F33702C7F322B3CBD3E
:1020C0002DB590E0959587959595879581702E7F94
:1020D000822B8DBD089585E361E00E94A11385E305
:1020E00061E00E94EE128CB580618CBD8CB580647D
:1020F0008CBD84E361E00E94EE1283E361E00E9404
:10210000EE1208950F931F93CF93DF93BC0182309B
:10211000910510F462E070E0E091410DF091420D04
:10212000A0E0B0E040E050E024C0808191818617BB
:102130009707D0F08617970771F4828193811097E3
:1021400029F013969C938E9312972CC09093420D76
:102150008093410D27C04115510519F0841795074B
:1021600018F4EF018D01AC01DF01828193819C01A4
:10217000F9013097D1F641155105F9F0CA01861BD6
:10218000970B8430910580F48A819B81011511059C
:1021900021F0F8019383828304C09093420D8093D1
:1021A000410DFE01329645C0FE01E80FF91F619313
:1021B00071930297998388833CC080913F0D9091E1
:1021C000400D892B41F48091A3069091A406909331
:1021D000400D80933F0D4091A5065091A6064115F4
:1021E000510541F44DB75EB78091A1069091A206CA
:1021F000481B590B20913F0D3091400D2417350796
:10220000B0F4CA01821B930B8617970780F0AB01CD
:102210004E5F5F4F8417950750F0420F531F509346
:10222000400D40933F0DF9016193719302C0E0E0CE
:10223000F0E0CF01DF91CF911F910F910895CF93DF
:10224000DF939C01009709F48FC0EC0122971B8259
:102250001A826091410D7091420D6115710581F4F2
:1022600088819981820F931F20913F0D3091400DFD
:102270002817390739F5D093400DC0933F0D74C02E
:10228000DB0140E050E0AC17BD0708F1BB83AA8337
:10229000FE0121913191E20FF31FAE17BF0779F4D0
:1022A0008D919C911197280F391F2E5F3F4F3983D5
:1022B000288312968D919C9113979B838A83411555
:1022C000510571F4D093420DC093410D4DC012964B
:1022D0008D919C911397AD01009711F0DC01D3CF44
:1022E000DA011396DC93CE931297FA012191319182
:1022F000E20FF31FCE17DF0769F488819981280F59
:10230000391F2E5F3F4FFA01318320838A819B81E1
:1023100093838283E0E0F0E0DB0112968D919C9143
:102320001397009719F0BC01FD01F6CFAB014E5F8A
:102330005F4FDB018D919C91840F951F20913F0D84
:102340003091400D2817390779F4309729F410920D
:10235000420D1092410D02C0138212824250504031
:102360005093400D40933F0DDF91CF9108951F9200
:102370000F920FB60F9211242F933F938F939F9339
:10238000AF93BF938091920A9091930AA091940A7F
:10239000B091950A3091960A0196A11DB11D232F87
:1023A0002D5F2D3720F02D570196A11DB11D2093D3
:1023B000960A8093920A9093930AA093940AB093FA
:1023C000950A80918E0A90918F0AA091900AB091FF
:1023D000910A0196A11DB11D80938E0A90938F0AD8
:1023E000A093900AB093910ABF91AF919F918F9162
:1023F0003F912F910F900FBE0F901F9018958FB7A0
:10240000F8942091920A3091930A4091940A509145
:10241000950A8FBFB901CA0108959FB7F89420911A
:102420008E0A30918F0A4091900A5091910A86B598
:10243000A89B06C08F3F21F02F5F3F4F4F4F5F4F4C
:102440009FBF542F432F322F2227280F311D411DAC
:10245000511D82E0220F331F441F551F8A95D1F76B
:10246000B901CA0108959B01AC017FB7F89480912E
:102470008E0A90918F0AA091900AB091910A66B548
:10248000A89B05C06F3F19F00196A11DB11D7FBF2C
:10249000BA2FA92F982F8827860F911DA11DB11D36
:1024A00062E0880F991FAA1FBB1F6A95D1F7BC0174
:1024B0002DC0FFB7F89480918E0A90918F0AA09159
:1024C000900AB091910AE6B5A89B05C0EF3F19F0BC
:1024D0000196A11DB11DFFBFBA2FA92F982F8827E4
:1024E0008E0F911DA11DB11DE2E0880F991FAA1F3B
:1024F000BB1FEA95D1F7861B970B885E9340C8F205
:10250000215030404040504068517C4F21153105EA
:102510004105510571F60895789484B5826084BDB3
:1025200084B5816084BD85B5826085BD85B58160D7
:1025300085BDEEE6F0E0808181608083E1E8F0E037
:102540001082808182608083808181608083E0E866
:10255000F0E0808181608083E1EBF0E08081846045
:102560008083E0EBF0E0808181608083E1E9F0E04E
:10257000808182608083808181608083E0E9F0E0F7
:10258000808181608083E1EAF0E0808182608083E5
:10259000808181608083E0EAF0E0808181608083D7
:1025A000E1E2F1E0808182608083808181608083CC
:1025B000E0E2F1E0808181608083EAE7F0E0808101
:1025C0008460808380818260808380818160808359
:1025D0008081806880831092C1000895CF93DF933B
:1025E000482F50E0CA018A5E9C4FFC013491405351
:1025F0005D4FFA018491882369F190E0880F991F5B
:10260000FC01EE57FD4FA591B491FC01E456FD4F3E
:10261000C591D491662351F42FB7F8948C91932FE0
:10262000909589238C93888189230BC0623061F453
:102630002FB7F8948C91932F909589238C93888150
:10264000832B88832FBF06C09FB7F8948C91832B70
:102650008C939FBFDF91CF910895893009F449C0D1
:102660008A30A0F4843051F1853040F4823079F121
:10267000833000F5813009F063C026C0873079F1DE
:10268000883098F5863009F05BC025C08D3009F49C
:1026900042C08E3028F48B30B1F18C30C0F52DC0A3
:1026A000803109F442C0813109F445C08F3009F00E
:1026B00047C037C0809180008F7703C08091800031
:1026C0008F7D80938000089584B58F7702C084B594
:1026D0008F7D84BD08958091B0008F7703C0809175
:1026E000B0008F7D8093B0000895809190008F7727
:1026F00007C0809190008F7D03C080919000877FFC
:102700008093900008958091A0008F7707C08091FA
:10271000A0008F7D03C08091A000877F8093A000E0
:102720000895809120018F7703C0809120018F7DD3
:1027300080932001089580912001877F809320015C
:102740000895FF920F931F93F62E482F50E0CA0171
:10275000845A9C4FFC012491CA018A5E9C4FFC0163
:10276000149140535D4FFA0104910023C9F02223D4
:1027700019F0822F0E942D13E02FF0E0EE0FFF1FC3
:10278000E456FD4FA591B4919FB7F894FF2021F432
:102790008C911095812302C08C91812B8C939FBFCB
:1027A0001F910F91FF9008958F929F92AF92BF92C9
:1027B000CF92DF92EF92FF920F931F93CF93DF930D
:1027C000A82FB0E0CD018A5E9C4FFC018490A053FD
:1027D000BD4FFD018491662311F4992401C0982C0A
:1027E0006FEFA62E6FEFB62E6FEFC62E6FE0D62ED0
:1027F000A222B322C422D522682F70E0660F771F71
:102800006A547D4FEE24FF248701FB01A591B4910A
:102810000BC0EA14FB040C051D0509F44EC0089416
:10282000E11CF11C011D111D8C918821891589F372
:102830000CC0EA14FB040C051D0509F43EC0089405
:10284000E11CF11C011D111D03C0FB01A591B491F8
:102850008C918821891569F720E030E040E050E054
:10286000FB01C591D4910FC0DA01C9018E0D9F1DE6
:10287000A01FB11F8A159B05AC05BD05F1F02F5FA8
:102880003F4F4F4F5F4F88818821891569F3CA01F7
:10289000B90125E130E040E050E00E94671E9B0155
:1028A000AC01205F3F4F4F4F5F4F84E056954795F7
:1028B000379527958A95D1F704C020E030E040E0B5
:1028C00050E0B901CA01DF91CF911F910F91FF90A4
:1028D000EF90DF90CF90BF90AF909F908F90089532
:1028E00008951F920F920FB60F920BB60F921124FC
:1028F0002F933F934F938F939F93EF93FF938091E9
:10290000C00082FD1DC04091C6002091D70A3091C1
:10291000D80A2F5F3F4F2F7330708091D90A909162
:10292000DA0A2817390771F0E091D70AF091D80A2E
:10293000E956F54F40833093D80A2093D70A02C056
:102940008091C600FF91EF919F918F914F913F91A0
:102950002F910F900BBE0F900FBE0F901F901895E8
:1029600008951F920F920FB60F920BB60F9211247B
:102970002F933F934F938F939F93EF93FF93809168
:10298000C80082FD1DC04091CE0020915F0B3091A8
:10299000600B2F5F3F4F2F7330708091610B9091D0
:1029A000620B2817390771F0E0915F0BF091600B13
:1029B000E15EF44F40833093600B20935F0B02C0C5
:1029C0008091CE00FF91EF919F918F914F913F9118
:1029D0002F910F900BBE0F900FBE0F901F90189568
:1029E00008951F920F920FB60F920BB60F921124FB
:1029F0002F933F934F938F939F93EF93FF938091E8
:102A0000D00082FD1DC04091D6002091E70B30918F
:102A1000E80B2F5F3F4F2F7330708091E90B90913F
:102A2000EA0B2817390771F0E091E70BF091E80BFA
:102A3000E955F44F40833093E80B2093E70B02C035
:102A40008091D600FF91EF919F918F914F913F918F
:102A50002F910F900BBE0F900FBE0F901F901895E7
:102A600008951F920F920FB60F920BB60F9211247A
:102A70002F933F934F938F939F93EF93FF93809167
:102A8000300182FD1DC04091360120916F0C3091C4
:102A9000700C2F5F3F4F2F7330708091710C9091AD
:102AA000720C2817390771F0E0916F0CF091700CDF
:102AB000E15DF34F40833093700C20936F0C02C0A4
:102AC00080913601FF91EF919F918F914F913F91AE
:102AD0002F910F900BBE0F900FBE0F901F90189567
:102AE000E091C30CF091C40CE05CFF4F8191919197
:102AF00020813181821B930B8F739070892B11F091
:102B00000E947014E091E50CF091E60CE05CFF4F40
:102B10008191919120813181821B930B8F739070F1
:102B2000892B11F00E94B014E091070DF091080D6F
:102B3000E05CFF4F8191919120813181821B930B49
:102B40008F739070892B11F00E94F014E091290D81
:102B5000F0912A0DE05CFF4F8191919120813181AC
:102B6000821B930B8F739070892B11F00E9430158C
:102B700008951F920F920FB60F920BB60F92112469
:102B80002F933F938F939F93EF93FF9320911B0B72
:102B900030911C0B80911D0B90911E0B281739074B
:102BA00031F48091C1008F7D8093C10014C0E09109
:102BB0001D0BF0911E0BE552F54F208180911D0BEE
:102BC00090911E0B01968F73907090931E0B8093C3
:102BD0001D0B2093C600FF91EF919F918F913F9124
:102BE0002F910F900BBE0F900FBE0F901F90189556
:102BF0001F920F920FB60F920BB60F9211242F93C4
:102C00003F938F939F93EF93FF932091A30B30916A
:102C1000A40B8091A50B9091A60B2817390731F4CE
:102C20008091C9008F7D8093C90014C0E091A50BED
:102C3000F091A60BED59F44F20818091A50B909156
:102C4000A60B01968F7390709093A60B8093A50BA3
:102C50002093CE00FF91EF919F918F913F912F9103
:102C60000F900BBE0F900FBE0F901F9018951F92E4
:102C70000F920FB60F920BB60F9211242F933F9322
:102C80008F939F93EF93FF9320912B0C30912C0CFB
:102C900080912D0C90912E0C2817390731F48091DA
:102CA000D1008F7D8093D10014C0E0912D0CF09164
:102CB0002E0CE551F44F208180912D0C90912E0C1B
:102CC00001968F73907090932E0C80932D0C20930F
:102CD000D600FF91EF919F918F913F912F910F908F
:102CE0000BBE0F900FBE0F901F9018951F920F9262
:102CF0000FB60F920BB60F9211242F933F938F9321
:102D00009F93EF93FF932091B30C3091B40C80917B
:102D1000B50C9091B60C2817390731F48091310128
:102D20008F7D8093310114C0E091B50CF091B60C09
:102D3000ED58F34F20818091B50C9091B60C01961F
:102D40008F7390709093B60C8093B50C20933601DE
:102D5000FF91EF919F918F913F912F910F900BBE1B
:102D60000F900FBE0F901F901895AF92BF92DF92F9
:102D7000EF92FF920F931F93CF93DF93EC017A01B1
:102D80008B01DD24403081EE580780E0680780E049
:102D9000780711F0DD24D39491E0A92EB12CEC89B1
:102DA000FD89DD2069F0C50108A002C0880F991FC8
:102DB0000A94E2F7808360E079E08DE390E005C05B
:102DC000108260E874E88EE190E0A80197010E940B
:102DD000AD1E2150304040405040569547953795A4
:102DE000279580E12030380720F0DD2011F0DD2428
:102DF000D6CFE889F9893083EA89FB89208319A233
:102E0000EE89FF89408121E030E0C9010C8C02C0CD
:102E1000880F991F0A94E2F7482B4083EE89FF89B7
:102E20004081C9010D8C02C0880F991F0A94E2F7F6
:102E3000482B4083EE89FF894081C9010E8C02C076
:102E4000880F991F0A94E2F7482B4083EE89FF8987
:102E500080810F8C02C0220F331F0A94E2F7209565
:102E600028232083DF91CF911F910F91FF90EF9046
:102E7000DF90BF90AF900895DC011C96ED91FC911E
:102E80001D97E05CFF4F2191319180819181281B3A
:102E9000390B2F733070C9010895DC011C96ED9138
:102EA000FC911D97E05CFF4F20813181E054F040A0
:102EB000DF01AE5BBF4F8D919C91119728173907A9
:102EC00019F42FEF3FEF07C08D919C91E80FF91F88
:102ED0008081282F30E0C9010895DC011C96ED9116
:102EE000FC911D97E05CFF4F20813181E054F04060
:102EF000DF01AE5BBF4F8D919C9111972817390769
:102F000019F42FEF3FEF10C08D919C911197E80FAE
:102F1000F91F20818D919C91119701968F7390706C
:102F200011969C938E9330E0C9010895DC0191962F
:102F30008C919197882339F05496ED91FC91559797
:102F4000808186FFF9CF91961C920895CF93DF93ED
:102F5000EC01EE85FF85E05CFF4F20813181E0547C
:102F6000F0402F5F3F4F2F733070DF01AE5BBF4FDC
:102F70008D919C91119728173907D1F3E05CFF4F91
:102F800080819181E054F040E80FF91F6083EE8565
:102F9000FF85E05CFF4F31832083EE89FF8920812C
:102FA00081E090E00F8C02C0880F991F0A94E2F72D
:102FB000282B208381E089A3EC89FD8980818064AE
:102FC000808381E090E0DF91CF9108951F9310926C
:102FD000BA0C1092B90C28EE33E040E050E0209398
:102FE000BB0C3093BC0C4093BD0C5093BE0C6BEAF1
:102FF00076E07093B80C6093B70C87E99AE09093F1
:10300000C40C8093C30C8BED9AE09093C60C809314
:10301000C50C85EC90E09093C80C8093C70C84ECB1
:1030200090E09093CA0C8093C90C80EC90E0909350
:10303000CC0C8093CB0C81EC90E09093CE0C8093E1
:10304000CD0C82EC90E09093D00C8093CF0C86EC6A
:1030500090E09093D20C8093D10C14E01093D30C99
:10306000B3E0B093D40CA7E0A093D50CF5E0F093B7
:10307000D60CE1E0E093D70C1092DC0C1092DB0C44
:103080002093DD0C3093DE0C4093DF0C5093E00C6A
:103090007093DA0C6093D90C8FE19BE09093E60C6F
:1030A0008093E50C83E69BE09093E80C8093E70C1B
:1030B0008DEC90E09093EA0C8093E90C8CEC90E01E
:1030C0009093EC0C8093EB0C88EC90E09093EE0CDA
:1030D0008093ED0C89EC90E09093F00C8093EF0CD2
:1030E0008AEC90E09093F20C8093F10C8EEC90E0DF
:1030F0009093F40C8093F30C1093F50CB093F60CB2
:10310000A093F70CF093F80CE093F90C1092FE0CDE
:103110001092FD0C2093FF0C3093000D4093010D95
:103120005093020D7093FC0C6093FB0C87EA9BE0BC
:103130009093080D8093070D8BEE9BE090930A0D02
:103140008093090D85ED90E090930C0D80930B0D0D
:1031500084ED90E090930E0D80930D0D80ED90E046
:103160009093100D80930F0D81ED90E09093120DD0
:103170008093110D82ED90E09093140D8093130DC8
:1031800086ED90E09093160D8093150D1093170D1A
:10319000B093180DA093190DF0931A0DE0931B0D29
:1031A0001092200D10921F0D2093210D3093220DAF
:1031B0004093230D5093240D70931E0D60931D0DAD
:1031C0008FE29CE090932A0D8093290D83E79CE089
:1031D00090932C0D80932B0D85E391E090932E0D11
:1031E00080932D0D84E391E09093300D80932F0D0B
:1031F00080E391E09093320D8093310D81E391E073
:103200009093340D8093330D82E391E09093360DCB
:103210008093350D86E391E09093380D8093370DC0
:103220001093390DB0933A0DA0933B0DF0933C0DE4
:10323000E0933D0D1F910895CF93DF930E948C1270
:103240000E949B0EC0E7D5E10E94EC0D2097E1F3B0
:103250000E947015F9CFCF92DF92EF92FF920F93F9
:103260001F93CF93DF937C016B018A01C0E0D0E014
:103270000FC0D6016D916D01D701ED91FC910190C8
:10328000F081E02DC7011995C80FD91F01501040DA
:103290000115110571F7CE01DF91CF911F910F91AB
:1032A000FF90EF90DF90CF900895EF92FF920F93F1
:1032B0001F938C01DC01ED91FC910190F081E02DD8
:1032C0006DE019957C01D801ED91FC910190F081A0
:1032D000E02DC8016AE019959C012E0D3F1DC90122
:1032E0001F910F91FF90EF900895CF93DF93EC0122
:1032F0006115710519F420E030E00FC0DB010D907D
:103300000020E9F71197A61BB70BE881F98102802D
:10331000F381E02DAD0119959C01C901DF91CF9199
:1033200008954F925F927F928F929F92AF92BF9239
:10333000CF92DF92EF92FF920F931F93DF93CF9381
:10334000CDB7DEB7A1970FB6F894DEBF0FBECDBFE5
:103350002C01742ECB01223008F42AE019A231E2AC
:10336000C32ED12CCC0EDD1E822E9924AA24BB2480
:10337000672D752FA50194010E94AD1E79018A0168
:10338000C801B701A50194010E94671E472D461B85
:103390000894C108D1084A3014F4405D01C0495C6A
:1033A000F6014083E114F1040105110521F07E2CA2
:1033B0005F2DC801DDCFC201B6010E947519A1962B
:1033C0000FB6F894DEBF0FBECDBFCF91DF911F9136
:1033D0000F91FF90EF90DF90CF90BF90AF909F90B4
:1033E0008F907F905F904F900895CF92DF92EF92F1
:1033F000FF920F931F93CF93DF93EC016A017B0140
:103400002115310541F4E881F9810190F081E02D29
:10341000642F19951FC02A303105D1F477FF17C0EA
:10342000E881F9810190F081E02D6DE219958C0120
:1034300044275527BA014C195D096E097F09CE0151
:103440002AE00E9491199801280F391F04C02AE030
:103450000E9491199C01C901DF91CF911F910F9199
:10346000FF90EF90DF90CF900895CF92DF92EF9290
:10347000FF920F931F936C017B019A010027F7FCC9
:103480000095102FB801A7010E94F5198C01C60103
:103490000E945519080F191FC8011F910F91FF9025
:1034A000EF90DF90CF900895EF92FF920F931F93CC
:1034B0007C010E9475198C01C7010E945519080FE3
:1034C000191FC8011F910F91FF90EF900895EF927F
:1034D000FF920F931F937B018C016115710581058C
:1034E000910529F420E030E040E050E00BC00E945C
:1034F0007202A80197010E94CF1EAC01CB01DA0134
:103500009C01AD01B901CA011F910F91FF90EF908D
:1035100008955058BB27AA270ED0A9C169D130F011
:103520006ED120F031F49F3F11F41EF45EC10EF411
:10353000E095E7FB54C1E92FBCD180F3BA176207CD
:1035400073078407950718F071F49EF5D4C10EF443
:10355000E0950B2EBA2FA02D0B01B90190010C01A3
:10356000CA01A0011124FF27591B99F0593F50F4BB
:10357000503E68F11A16F040A22F232F342F442713
:10358000585FF3CF469537952795A795F04053950B
:10359000C9F77EF41F16BA0B620B730B840BBAF0DB
:1035A0009150A1F0FF0FBB1F661F771F881FC2F746
:1035B0000EC0BA0F621F731F841F48F4879577955A
:1035C0006795B795F7959E3F08F0B3CF9395880F11
:1035D00008F09927EE0F979587950895DCD008F4A9
:1035E00081E0089514D1E39553C10CD040C107D1B7
:1035F00040F0FED030F021F45F3F19F0F0C05111DF
:103600007BC1F3C056D198F39923C9F35523B1F385
:10361000951B550BBB27AA2762177307840738F041
:103620009F5F5F4F220F331F441FAA1FA9F333D0A0
:103630000E2E3AF0E0E830D091505040E695001C54
:10364000CAF729D0FE2F27D0660F771F881FBB1F10
:10365000261737074807AB07B0E809F0BB0B802DEA
:10366000BF01FF2793585F4F2AF09E3F510568F036
:10367000B6C042C15F3FECF3983EDCF38695779588
:103680006795B795F7959F5FC9F7880F911D969538
:10369000879597F90895E1E0660F771F881FBB1F94
:1036A000621773078407BA0720F0621B730B840B41
:1036B000BA0BEE1F88F7E095089504D06894B11115
:1036C0001BC10895FED088F09F5790F0B92F99271D
:1036D000B751A0F0D1F0660F771F881F991F1AF01D
:1036E000BA95C9F712C0B13081F005D1B1E00895A3
:1036F00002C1672F782F8827B85F39F0B93FCCF324
:10370000869577956795B395D9F73EF49095809512
:10371000709561957F4F8F4F9F4F0895E89409C032
:1037200097FB3EF490958095709561957F4F8F4FF4
:103730009F4F9923A9F0F92F96E9BB279395F6950A
:10374000879577956795B795F111F8CFFAF4BB0F88
:1037500011F460FF1BC06F5F7F4F8F4F9F4F16C0EC
:10376000882311F096E911C0772321F09EE8872F76
:10377000762F05C0662371F096E8862F70E060E032
:103780002AF09A95660F771F881FDAF7880F9695AB
:10379000879597F90895990F0008550FAA0BE0E84F
:1037A000FEEF16161706E807F907C0F01216130603
:1037B000E407F50798F0621B730B840B950B39F443
:1037C0000A2661F0232B242B252B21F408950A26A9
:1037D00009F4A140A6958FEF811D811D089597F9E9
:1037E0009F6780E870E060E008959FEF80EC0895A7
:1037F00000240A94161617061806090608950024D0
:103800000A9412161306140605060895EECF59D031
:10381000E8F3E894EFEFBB273FE048EC5FE76B3D50
:1038200073078407950708F1FF279F57B25A6A4D1F
:103830007F40894CF04032F4BE556542704F86435C
:10384000FF4F0894EE1F915030F0BB0F661F771F9B
:10385000881FFF1FEBCF9EE7882332F0BB0F661F48
:10386000771F881F9A95C1F79395E09535C1092E6A
:103870000394000C11F4882352F0BB0F40F4BF2BCB
:1038800011F460FF04C06F5F7F4F8F4F9F4F08950B
:10389000EF93E0FF06C0A2EA2AED3FE049EC5FEBC0
:1038A0004ADEE5DF0F90039401FC9058E2EEF1E070
:1038B00048C157FD9058440F551F59F05F3F71F0B4
:1038C0004795880F97FB991F61F09F3F79F0879587
:1038D0000895121613061406551FF2CF4695F1DF10
:1038E00008C0161617061806991FF1CF86957105A0
:1038F000610508940895E894BB2766277727CB01D4
:1039000097F9089548DF08F48FEF08950BD0AFCFF3
:103910006FDF28F074DF18F0952309F060CF65CFD2
:103920001124EACFC6DFA0F3959FD1F3950F50E0A5
:10393000551F629FF001729FBB27F00DB11D639F61
:10394000AA27F00DB11DAA1F649F6627B00DA11D07
:10395000661F829F2227B00DA11D621F739FB00DAD
:10396000A11D621F839FA00D611D221F749F33271D
:10397000A00D611D231F849F600D211D822F762FB6
:103980006A2F11249F5750408AF0E1F088234AF0B3
:10399000EE0FFF1FBB1F661F771F881F91505040FF
:1039A000A9F79E3F510570F01ACFA6CF5F3FECF309
:1039B000983EDCF3869577956795B795F795E795EB
:1039C0009F5FC1F7FE2B880F911D9695879597F9FC
:1039D0000895FA01EE0FFF1F30962105310599F188
:1039E0006115710561F48038BFE39B0749F1689464
:1039F0009038810561F08038BFEF9B0741F0992333
:103A000042F5FF3FE1053105210511F1E8940894E5
:103A1000E795D901AA2329F4AB2FBE2FF85FD0F385
:103A200010C0FF5F70F4A695E0F7F73950F019F079
:103A3000FF3A38F49F779F930CD00F9007FC905873
:103A400008953EF0D2CE60E070E080E89FE30895F4
:103A50004FE79F775F934F933F932F93C5D02F915D
:103A60003F914F915F9152DF0BC09F93D0DE0F903B
:103A700007FCEE5F0DCF19F40EF0B1CE3CCFB5CE02
:103A800020DFC8F39638C0F707F80F92E8942BE3CD
:103A90003AEA48EB5FE748DF0F920F920F924DB77B
:103AA0005EB70F92E1D0E0E0F2E026D04F915F9157
:103AB000EF91FF91E595EE1FFF1F49F0FE57E0687B
:103AC0004427EE0F441FFA95E1F74195550B53D06B
:103AD0000F9007FE47C008959F3F49F0915028F48A
:103AE000869577956795B7959F5F80389F4F880F2C
:103AF0009695879597F90895DF93CF931F930F932A
:103B0000FF92EF92DF927B018C01689405C0DA2E60
:103B1000EF0108DFFE01E894A591259135914591CB
:103B20005591AEF3EF0107DDFE019701A801DA948C
:103B300079F7DF90EF90FF900F911F91CF91DF9178
:103B400008959F938F937F936F93FF93EF939B01C0
:103B5000AC01DCDEEF91FF91CFDF2F913F914F91D0
:103B60005F91D4CE9B01AC0160E070E080E89FE300
:103B70003CCD35CEB1CFA5DEE8F39923D9F3940F30
:103B8000511DBBF39150504094F059F0882332F00E
:103B9000660F771F881F91505040C1F79E3F510517
:103BA00044F7880F911D9695879597F908955F3F83
:103BB000ACF0983E9CF0BB27869577956795B795B6
:103BC00008F4B1609395C1F7BB0F58F711F460FF8B
:103BD000E8CF6F5F7F4F8F4F9F4FE3CF8DCE0EF0BB
:103BE0007BCF03CE6894FBCD6CDEC8F39923D1F371
:103BF000C6F3DF93CF931F930F93FF92C92FDD2757
:103C000088232AF02197660F771F881FDAF720E0B4
:103C100030E040E85FEB9FE3883920F0803E30F0F1
:103C200021968F7777DCE8E2F2E003C073DCE5E50C
:103C3000F2E062DF8B01BE01EC01FB2E6F577109D0
:103C40007595771F880B990B6BDD28E132E741E30F
:103C50005FE368DEAF2D9801AE01FF900F911F91D9
:103C6000CF91DF9168DC03CEFA01DC01AA0FBB1F04
:103C70009B01AC01BF5728F42227332744275078F3
:103C80001FC0B75188F4AB2F002446953795279570
:103C9000011CA395D2F3002069F0220F331F441FAB
:103CA000B395DAF30DD035CC61307105A0E88A0701
:103CB000B94630F49B01AC016627772788279078B6
:103CC000309621F020833183428353830895629F8D
:103CD000D001739FF001829FE00DF11D649FE00D04
:103CE000F11D929FF00D839FF00D749FF00D659F65
:103CF000F00D9927729FB00DE11DF91F639FB00D64
:103D0000E11DF91FBD01CF0111240895AA1BBB1BA2
:103D100051E107C0AA1FBB1FA617B70710F0A61BCB
:103D2000B70B881F991F5A95A9F780959095BC01EC
:103D3000CD01089597FB092E07260AD077FD04D000
:103D4000E5DF06D000201AF4709561957F4F089545
:103D5000F6F7909581959F4F0895A1E21A2EAA1B20
:103D6000BB1BFD010DC0AA1FBB1FEE1FFF1FA2172B
:103D7000B307E407F50720F0A21BB30BE40BF50B28
:103D8000661F771F881F991F1A9469F760957095B1
:103D9000809590959B01AC01BD01CF01089597FBE3
:103DA000092E05260ED057FD04D0D7DF0AD0001CFF
:103DB00038F450954095309521953F4F4F4F5F4FC8
:103DC0000895F6F790958095709561957F4F8F4F88
:103DD0009F4F0895EE0FFF1F0590F491E02D199469
:103DE0002F923F924F925F926F927F928F929F920B
:103DF000AF92BF92CF92DF92EF92FF920F931F93F9
:103E0000CF93DF93CDB7DEB7CA1BDB0B0FB6F894A9
:103E1000DEBF0FBECDBF19942A88398848885F84D9
:103E20006E847D848C849B84AA84B984C884DF805A
:103E3000EE80FD800C811B81AA81B981CE0FD11D3E
:103E40000FB6F894DEBF0FBECDBFED01089513E0AD
:103E5000C6EAD3E004C0FE010E94EC1E2296C83AD6
:083E6000D107C9F7F894FFCF68
:103E680063616C6962726174696F6E206F766572E6
:103E780000736C656570210070756C6C646F776E8B
:103E8800210063616C696272617465210052656129
:103E9800647900010000001701EA00D700D500CDC1
:103EA80000D000BD00B900BE00BF00BB00BC00AE22
:103EB80000A800A700A800AE00B400B700B200B385
:103EC80000A6009B009B00A600A900A700A800A9C7
:103ED80000A500AF00B000B000AC00860088008CE0
:103EE800009A009F0096008A00860081007A00737D
:103EF80000710068006900760081008E0098009EBD
:103F08000097009E009A0095009300890082007F28
:103F1800007D007A007A00760075007700850084BD
:103F28000088008E00890086008800790079007C6E
:103F3800007E008200840083008D0091008E009036
:103F480000000077006C006E0077007A007A008528
:103F58000094009B00A100A100A400A3009F009C66
:103F680000960099008D008C008A008E0093009CBA
:103F780000A2009F00A0009F009B009B00A100A53D
:103F880000A4009D00B000A300AC00A400A200A201
:103F980000AA00B200AB00AD00B100B600BE00B987
:103FA80000B600B800AE00B700C900CA00D400E2ED
:103FB80000E800D300CE00C100C100C000C300BDAE
:103FC80000B800B600C000C500B500AA00B100D115
:103FD80000CE00C800C400C700D500CB00D600CB77
:103FE80000C500D400E500EA00D600B700C800CC40
:103FF80000D200D700C800C400D100E300D900D91E
:1040080000D500D300C000B100AB00AA00B800BFC3
:1040180000BF00CF00D300CC00D100D500D100C232
:1040280000CF00C700C900BE00D000CE00D700DA1C
:1040380000E300EA00F400E400E200E500EB00EB36
:1040480000D900BC00BF00C100B300AC00C900CF5C
:1040580000D500E200E100E000DD00D100D200C898
:1040680000C100CC00DE00E400E400D800DE00E679
:1040780000E100DC00D100DE00E400E300E300EB37
:1040880000EA00E800F000ED00E100E800E800ECDC
:1040980000E800E000D700DE00D200D100E200E135
:1040A80000EE00F500FC00FF00F900FA00FC00FC3F
:1040B80000F600F100E200DC00D900CF00E200F6D3
:1040C80000F500F000ED0014001300100012000FBE
:1040D8000088005F005F005F005F005E00130085DE
:1040E80000D000AC0003005A000E000F000E000CB8
:1040F800000C000A000A000A0009000A0003002850
:10410800002B000C0019000A00540012001300577D
:10411800001F00140009000A0009000E000E00101C
:10412800000F000E00140029000D000D007B000D8B
:1041380000080009000B00110014001A0028001FD5
:104148000021000300030003000300030003000331
:10415800000300030003000000000000000000004E
:104168000000000000000000000000000000000245
:10417800001300190025001E001C00190019001367
:104188000010000D000B000800090009000C0012C7
:10419800001C001F00180016001500130011000D68
:1041A800000B00080007000700080009000E0013B4
:1041B800001000140012000F000B000B000900078C
:1041C8000006000400030003000300050024001C8F
:1041D80000230025001B001E002D002800190017D1
:1041E80000110015002900330038003A004200741D
:1041F80000540046009700340021002E002B002BAD
:10420800002D0034004D004C002D0035005E004D9F
:104218000059002D0025001C001E002300850026E3
:10422800002B0033002D002B0030003B0026002718
:10423800003F0019001A00180018001D0025003E54
:104248000073005B0062007D00980048002700258D
:104258000011000F000C00150017002F004100612D
:10426800002700270030003B0044004B004800298D
:10427800001600190021002600300043006C005C85
:10428800007200C0009B008500800087005900492B
:10429800003F00390035002C00300041004A00552D
:1042A800004C003C00400045004F0087005600408D
:1042B800004800430003003C00FF00C20040003BF0
:1042C800004C00610058005E0051003C0035004081
:1042D800003E0032003A004A004A00670067005A70
:1042E8000044003E0047004D003B0043005A005D7B
:1042F800006C006500FFFFFFFF8100983A00000096
:10430800018000430D000000000000A6172B193C97
:08431800176D174D17961700F1
:00000001FF
